{
  "_format": "hh-sol-artifact-1",
  "contractName": "AlphaCoin42",
  "sourceName": "contracts/AlphaCoin42.sol",
  "abi": [
    {
      "inputs": [],
      "stateMutability": "nonpayable",
      "type": "constructor"
    },
    {
      "anonymous": false,
      "inputs": [
        {
          "indexed": true,
          "internalType": "address",
          "name": "_from",
          "type": "address"
        },
        {
          "indexed": true,
          "internalType": "address",
          "name": "_to",
          "type": "address"
        },
        {
          "indexed": false,
          "internalType": "uint256",
          "name": "_value",
          "type": "uint256"
        }
      ],
      "name": "Transfer",
      "type": "event"
    },
    {
      "inputs": [
        {
          "internalType": "address",
          "name": "owner_",
          "type": "address"
        }
      ],
      "name": "balanceOf",
      "outputs": [
        {
          "internalType": "uint256",
          "name": "balance",
          "type": "uint256"
        }
      ],
      "stateMutability": "view",
      "type": "function"
    },
    {
      "inputs": [],
      "name": "decimals",
      "outputs": [
        {
          "internalType": "uint8",
          "name": "",
          "type": "uint8"
        }
      ],
      "stateMutability": "view",
      "type": "function"
    },
    {
      "inputs": [],
      "name": "name",
      "outputs": [
        {
          "internalType": "string",
          "name": "",
          "type": "string"
        }
      ],
      "stateMutability": "view",
      "type": "function"
    },
    {
      "inputs": [],
      "name": "symbol",
      "outputs": [
        {
          "internalType": "string",
          "name": "",
          "type": "string"
        }
      ],
      "stateMutability": "view",
      "type": "function"
    },
    {
      "inputs": [],
      "name": "totalSupply",
      "outputs": [
        {
          "internalType": "uint256",
          "name": "",
          "type": "uint256"
        }
      ],
      "stateMutability": "view",
      "type": "function"
    },
    {
      "inputs": [
        {
          "internalType": "address",
          "name": "to_",
          "type": "address"
        },
        {
          "internalType": "uint256",
          "name": "value_",
          "type": "uint256"
        }
      ],
      "name": "transfer",
      "outputs": [
        {
          "internalType": "bool",
          "name": "success",
          "type": "bool"
        }
      ],
      "stateMutability": "nonpayable",
      "type": "function"
    },
    {
      "inputs": [
        {
          "internalType": "address",
          "name": "from_",
          "type": "address"
        },
        {
          "internalType": "address",
          "name": "to_",
          "type": "address"
        },
        {
          "internalType": "uint256",
          "name": "value_",
          "type": "uint256"
        }
      ],
      "name": "transferFrom",
      "outputs": [
        {
          "internalType": "bool",
          "name": "success",
          "type": "bool"
        }
      ],
      "stateMutability": "nonpayable",
      "type": "function"
    }
  ],
  "bytecode": "0x60806040526012600260006101000a81548160ff021916908360ff16021790555034801561002c57600080fd5b506040518060400160405280600b81526020017f416c706861436f696e34320000000000000000000000000000000000000000008152506000908161007191906103ed565b506040518060400160405280600481526020017f4143343200000000000000000000000000000000000000000000000000000000815250600190816100b691906103ed565b50600260009054906101000a900460ff1660ff16600a6100d69190610621565b620f42406100e4919061066c565b600381905550600354600460003373ffffffffffffffffffffffffffffffffffffffff1673ffffffffffffffffffffffffffffffffffffffff168152602001908152602001600020819055503373ffffffffffffffffffffffffffffffffffffffff16600073ffffffffffffffffffffffffffffffffffffffff167fddf252ad1be2c89b69c2b068fc378daa952ba7f163c4a11628f55a4df523b3ef60035460405161019091906106bd565b60405180910390a36106d8565b600081519050919050565b7f4e487b7100000000000000000000000000000000000000000000000000000000600052604160045260246000fd5b7f4e487b7100000000000000000000000000000000000000000000000000000000600052602260045260246000fd5b6000600282049050600182168061021e57607f821691505b602082108103610231576102306101d7565b5b50919050565b60008190508160005260206000209050919050565b60006020601f8301049050919050565b600082821b905092915050565b6000600883026102997fffffffffffffffffffffffffffffffffffffffffffffffffffffffffffffffff8261025c565b6102a3868361025c565b95508019841693508086168417925050509392505050565b6000819050919050565b6000819050919050565b60006102ea6102e56102e0846102bb565b6102c5565b6102bb565b9050919050565b6000819050919050565b610304836102cf565b610318610310826102f1565b848454610269565b825550505050565b600090565b61032d610320565b6103388184846102fb565b505050565b5b8181101561035c57610351600082610325565b60018101905061033e565b5050565b601f8211156103a15761037281610237565b61037b8461024c565b8101602085101561038a578190505b61039e6103968561024c565b83018261033d565b50505b505050565b600082821c905092915050565b60006103c4600019846008026103a6565b1980831691505092915050565b60006103dd83836103b3565b9150826002028217905092915050565b6103f68261019d565b67ffffffffffffffff81111561040f5761040e6101a8565b5b6104198254610206565b610424828285610360565b600060209050601f8311600181146104575760008415610445578287015190505b61044f85826103d1565b8655506104b7565b601f19841661046586610237565b60005b8281101561048d57848901518255600182019150602085019450602081019050610468565b868310156104aa57848901516104a6601f8916826103b3565b8355505b6001600288020188555050505b505050505050565b7f4e487b7100000000000000000000000000000000000000000000000000000000600052601160045260246000fd5b60008160011c9050919050565b6000808291508390505b600185111561054557808604811115610521576105206104bf565b5b60018516156105305780820291505b808102905061053e856104ee565b9450610505565b94509492505050565b60008261055e576001905061061a565b8161056c576000905061061a565b8160018114610582576002811461058c576105bb565b600191505061061a565b60ff84111561059e5761059d6104bf565b5b8360020a9150848211156105b5576105b46104bf565b5b5061061a565b5060208310610133831016604e8410600b84101617156105f05782820a9050838111156105eb576105ea6104bf565b5b61061a565b6105fd84848460016104fb565b92509050818404811115610614576106136104bf565b5b81810290505b9392505050565b600061062c826102bb565b9150610637836102bb565b92506106647fffffffffffffffffffffffffffffffffffffffffffffffffffffffffffffffff848461054e565b905092915050565b6000610677826102bb565b9150610682836102bb565b9250828202610690816102bb565b915082820484148315176106a7576106a66104bf565b5b5092915050565b6106b7816102bb565b82525050565b60006020820190506106d260008301846106ae565b92915050565b610afd806106e76000396000f3fe608060405234801561001057600080fd5b506004361061007d5760003560e01c8063313ce5671161005b578063313ce567146100ee57806370a082311461010c57806395d89b411461013c578063a9059cbb1461015a5761007d565b806306fdde031461008257806318160ddd146100a057806323b872dd146100be575b600080fd5b61008a61018a565b6040516100979190610608565b60405180910390f35b6100a861021c565b6040516100b59190610643565b60405180910390f35b6100d860048036038101906100d391906106ed565b610226565b6040516100e5919061075b565b60405180910390f35b6100f661022f565b6040516101039190610792565b60405180910390f35b610126600480360381019061012191906107ad565b610246565b6040516101339190610643565b60405180910390f35b61014461028f565b6040516101519190610608565b60405180910390f35b610174600480360381019061016f91906107da565b610321565b604051610181919061075b565b60405180910390f35b60606000805461019990610849565b80601f01602080910402602001604051908101604052809291908181526020018280546101c590610849565b80156102125780601f106101e757610100808354040283529160200191610212565b820191906000526020600020905b8154815290600101906020018083116101f557829003601f168201915b5050505050905090565b6000600354905090565b60009392505050565b6000600260009054906101000a900460ff16905090565b6000600460008373ffffffffffffffffffffffffffffffffffffffff1673ffffffffffffffffffffffffffffffffffffffff168152602001908152602001600020549050919050565b60606001805461029e90610849565b80601f01602080910402602001604051908101604052809291908181526020018280546102ca90610849565b80156103175780601f106102ec57610100808354040283529160200191610317565b820191906000526020600020905b8154815290600101906020018083116102fa57829003601f168201915b5050505050905090565b60008073ffffffffffffffffffffffffffffffffffffffff168373ffffffffffffffffffffffffffffffffffffffff1603610391576040517f08c379a0000000000000000000000000000000000000000000000000000000008152600401610388906108ec565b60405180910390fd5b61039961021c565b8211156103db576040517f08c379a00000000000000000000000000000000000000000000000000000000081526004016103d29061097e565b60405180910390fd5b81600460003373ffffffffffffffffffffffffffffffffffffffff1673ffffffffffffffffffffffffffffffffffffffff16815260200190815260200160002054101561045d576040517f08c379a000000000000000000000000000000000000000000000000000000000815260040161045490610a10565b60405180910390fd5b81600460003373ffffffffffffffffffffffffffffffffffffffff1673ffffffffffffffffffffffffffffffffffffffff16815260200190815260200160002060008282546104ac9190610a5f565b9250508190555081600460008573ffffffffffffffffffffffffffffffffffffffff1673ffffffffffffffffffffffffffffffffffffffff16815260200190815260200160002060008282546105029190610a93565b925050819055508273ffffffffffffffffffffffffffffffffffffffff163373ffffffffffffffffffffffffffffffffffffffff167fddf252ad1be2c89b69c2b068fc378daa952ba7f163c4a11628f55a4df523b3ef846040516105669190610643565b60405180910390a36001905092915050565b600081519050919050565b600082825260208201905092915050565b60005b838110156105b2578082015181840152602081019050610597565b60008484015250505050565b6000601f19601f8301169050919050565b60006105da82610578565b6105e48185610583565b93506105f4818560208601610594565b6105fd816105be565b840191505092915050565b6000602082019050818103600083015261062281846105cf565b905092915050565b6000819050919050565b61063d8161062a565b82525050565b60006020820190506106586000830184610634565b92915050565b600080fd5b600073ffffffffffffffffffffffffffffffffffffffff82169050919050565b600061068e82610663565b9050919050565b61069e81610683565b81146106a957600080fd5b50565b6000813590506106bb81610695565b92915050565b6106ca8161062a565b81146106d557600080fd5b50565b6000813590506106e7816106c1565b92915050565b6000806000606084860312156107065761070561065e565b5b6000610714868287016106ac565b9350506020610725868287016106ac565b9250506040610736868287016106d8565b9150509250925092565b60008115159050919050565b61075581610740565b82525050565b6000602082019050610770600083018461074c565b92915050565b600060ff82169050919050565b61078c81610776565b82525050565b60006020820190506107a76000830184610783565b92915050565b6000602082840312156107c3576107c261065e565b5b60006107d1848285016106ac565b91505092915050565b600080604083850312156107f1576107f061065e565b5b60006107ff858286016106ac565b9250506020610810858286016106d8565b9150509250929050565b7f4e487b7100000000000000000000000000000000000000000000000000000000600052602260045260246000fd5b6000600282049050600182168061086157607f821691505b6020821081036108745761087361081a565b5b50919050565b7f45524332303a207472616e7366657220746f20746865207a65726f206164647260008201527f6573730000000000000000000000000000000000000000000000000000000000602082015250565b60006108d6602383610583565b91506108e18261087a565b604082019050919050565b60006020820190508181036000830152610905816108c9565b9050919050565b7f45524332303a207472616e7366657220616d6f756e742065786365656473207460008201527f6f74616c20737570706c79000000000000000000000000000000000000000000602082015250565b6000610968602b83610583565b91506109738261090c565b604082019050919050565b600060208201905081810360008301526109978161095b565b9050919050565b7f45524332303a207472616e7366657220616d6f756e742065786365656473206260008201527f616c616e63650000000000000000000000000000000000000000000000000000602082015250565b60006109fa602683610583565b9150610a058261099e565b604082019050919050565b60006020820190508181036000830152610a29816109ed565b9050919050565b7f4e487b7100000000000000000000000000000000000000000000000000000000600052601160045260246000fd5b6000610a6a8261062a565b9150610a758361062a565b9250828203905081811115610a8d57610a8c610a30565b5b92915050565b6000610a9e8261062a565b9150610aa98361062a565b9250828201905080821115610ac157610ac0610a30565b5b9291505056fea2646970667358221220dd0e2f2aac72d064164acb7b1f9882e00908558fa8b8984d1bb48998b3739b7364736f6c634300081c0033",
  "linkReferences": {},
  "deployedLinkReferences": {}
}