{
  "_format": "hh-sol-artifact-1",
  "contractName": "AlphaCoin42",
  "sourceName": "contracts/AlphaCoin42.sol",
  "abi": [
    {
      "inputs": [],
      "stateMutability": "nonpayable",
      "type": "constructor"
    },
    {
      "anonymous": false,
      "inputs": [
        {
          "indexed": true,
          "internalType": "address",
          "name": "_owner",
          "type": "address"
        },
        {
          "indexed": true,
          "internalType": "address",
          "name": "_spender",
          "type": "address"
        },
        {
          "indexed": false,
          "internalType": "uint96",
          "name": "_value",
          "type": "uint96"
        }
      ],
      "name": "Approval",
      "type": "event"
    },
    {
      "anonymous": false,
      "inputs": [
        {
          "indexed": true,
          "internalType": "address",
          "name": "_from",
          "type": "address"
        },
        {
          "indexed": true,
          "internalType": "address",
          "name": "_to",
          "type": "address"
        },
        {
          "indexed": false,
          "internalType": "uint96",
          "name": "_value",
          "type": "uint96"
        }
      ],
      "name": "Transfer",
      "type": "event"
    },
    {
      "inputs": [
        {
          "internalType": "address",
          "name": "owner_",
          "type": "address"
        },
        {
          "internalType": "address",
          "name": "spender_",
          "type": "address"
        }
      ],
      "name": "allowance",
      "outputs": [
        {
          "internalType": "uint96",
          "name": "",
          "type": "uint96"
        }
      ],
      "stateMutability": "view",
      "type": "function"
    },
    {
      "inputs": [
        {
          "internalType": "address",
          "name": "spender_",
          "type": "address"
        },
        {
          "internalType": "uint96",
          "name": "value_",
          "type": "uint96"
        }
      ],
      "name": "approve",
      "outputs": [
        {
          "internalType": "bool",
          "name": "success",
          "type": "bool"
        }
      ],
      "stateMutability": "nonpayable",
      "type": "function"
    },
    {
      "inputs": [
        {
          "internalType": "address",
          "name": "owner_",
          "type": "address"
        }
      ],
      "name": "balanceOf",
      "outputs": [
        {
          "internalType": "uint96",
          "name": "",
          "type": "uint96"
        }
      ],
      "stateMutability": "view",
      "type": "function"
    },
    {
      "inputs": [],
      "name": "decimals",
      "outputs": [
        {
          "internalType": "uint8",
          "name": "",
          "type": "uint8"
        }
      ],
      "stateMutability": "pure",
      "type": "function"
    },
    {
      "inputs": [
        {
          "internalType": "address",
          "name": "spender_",
          "type": "address"
        },
        {
          "internalType": "uint96",
          "name": "subtractedValue",
          "type": "uint96"
        }
      ],
      "name": "decreaseAllowance",
      "outputs": [
        {
          "internalType": "bool",
          "name": "",
          "type": "bool"
        }
      ],
      "stateMutability": "nonpayable",
      "type": "function"
    },
    {
      "inputs": [
        {
          "internalType": "address",
          "name": "spender_",
          "type": "address"
        },
        {
          "internalType": "uint96",
          "name": "addedValue",
          "type": "uint96"
        }
      ],
      "name": "increaseAllowance",
      "outputs": [
        {
          "internalType": "bool",
          "name": "",
          "type": "bool"
        }
      ],
      "stateMutability": "nonpayable",
      "type": "function"
    },
    {
      "inputs": [],
      "name": "name",
      "outputs": [
        {
          "internalType": "string",
          "name": "",
          "type": "string"
        }
      ],
      "stateMutability": "pure",
      "type": "function"
    },
    {
      "inputs": [],
      "name": "symbol",
      "outputs": [
        {
          "internalType": "string",
          "name": "",
          "type": "string"
        }
      ],
      "stateMutability": "pure",
      "type": "function"
    },
    {
      "inputs": [],
      "name": "totalSupply",
      "outputs": [
        {
          "internalType": "uint96",
          "name": "",
          "type": "uint96"
        }
      ],
      "stateMutability": "pure",
      "type": "function"
    },
    {
      "inputs": [
        {
          "internalType": "address",
          "name": "to_",
          "type": "address"
        },
        {
          "internalType": "uint96",
          "name": "value_",
          "type": "uint96"
        }
      ],
      "name": "transfer",
      "outputs": [
        {
          "internalType": "bool",
          "name": "success",
          "type": "bool"
        }
      ],
      "stateMutability": "nonpayable",
      "type": "function"
    },
    {
      "inputs": [
        {
          "internalType": "address",
          "name": "from_",
          "type": "address"
        },
        {
          "internalType": "address",
          "name": "to_",
          "type": "address"
        },
        {
          "internalType": "uint96",
          "name": "value_",
          "type": "uint96"
        }
      ],
      "name": "transferFrom",
      "outputs": [
        {
          "internalType": "bool",
          "name": "success",
          "type": "bool"
        }
      ],
      "stateMutability": "nonpayable",
      "type": "function"
    }
  ],
  "bytecode": "0x608060405234801561001057600080fd5b50601260ff16600a0a620f4240026000803373ffffffffffffffffffffffffffffffffffffffff1673ffffffffffffffffffffffffffffffffffffffff16815260200190815260200160002060008282829054906101000a90046bffffffffffffffffffffffff160192506101000a8154816bffffffffffffffffffffffff02191690836bffffffffffffffffffffffff1602179055503373ffffffffffffffffffffffffffffffffffffffff16600073ffffffffffffffffffffffffffffffffffffffff167fba7196a4bdbfed2416fed23830b5c875c6e32d81744212e9776f7d2b02a331886012600a61010591906102a6565b620f424061011391906102f1565b604051610120919061035a565b60405180910390a3610375565b7f4e487b7100000000000000000000000000000000000000000000000000000000600052601160045260246000fd5b60008160011c9050919050565b6000808291508390505b60018511156101b35780860481111561018f5761018e61012d565b5b600185161561019e5780820291505b80810290506101ac8561015c565b9450610173565b94509492505050565b6000826101cc5760019050610288565b816101da5760009050610288565b81600181146101f057600281146101fa57610229565b6001915050610288565b60ff84111561020c5761020b61012d565b5b8360020a9150848211156102235761022261012d565b5b50610288565b5060208310610133831016604e8410600b841016171561025e5782820a9050838111156102595761025861012d565b5b610288565b61026b8484846001610169565b925090508184048111156102825761028161012d565b5b81810290505b9392505050565b6000819050919050565b600060ff82169050919050565b60006102b18261028f565b91506102bc83610299565b92506102e97fffffffffffffffffffffffffffffffffffffffffffffffffffffffffffffffff84846101bc565b905092915050565b60006102fc8261028f565b91506103078361028f565b92508282026103158161028f565b9150828204841483151761032c5761032b61012d565b5b5092915050565b60006bffffffffffffffffffffffff82169050919050565b61035481610333565b82525050565b600060208201905061036f600083018461034b565b92915050565b611aa7806103846000396000f3fe608060405234801561001057600080fd5b50600436106100a95760003560e01c806370a082311161007157806370a082311461016857806395d89b41146101985780639a23b2b4146101b6578063a0017938146101e6578063dd62ed3e14610216578063ea0b3c7314610246576100a9565b806306fdde03146100ae5780631385c172146100cc57806318160ddd146100fc578063313ce5671461011a5780635c9087be14610138575b600080fd5b6100b6610276565b6040516100c39190611252565b60405180910390f35b6100e660048036038101906100e1919061131b565b6102b3565b6040516100f39190611376565b60405180910390f35b610104610473565b60405161011191906113a0565b60405180910390f35b610122610496565b60405161012f91906113d7565b60405180910390f35b610152600480360381019061014d919061131b565b61049f565b60405161015f9190611376565b60405180910390f35b610182600480360381019061017d91906113f2565b6106c4565b60405161018f91906113a0565b60405180910390f35b6101a0610724565b6040516101ad9190611252565b60405180910390f35b6101d060048036038101906101cb919061141f565b610761565b6040516101dd9190611376565b60405180910390f35b61020060048036038101906101fb919061131b565b610be1565b60405161020d9190611376565b60405180910390f35b610230600480360381019061022b9190611472565b610e9b565b60405161023d91906113a0565b60405180910390f35b610260600480360381019061025b919061131b565b610f3a565b60405161026d9190611376565b60405180910390f35b60606040518060400160405280600b81526020017f416c706861436f696e3432000000000000000000000000000000000000000000815250905090565b60008082600160003373ffffffffffffffffffffffffffffffffffffffff1673ffffffffffffffffffffffffffffffffffffffff16815260200190815260200160002060008673ffffffffffffffffffffffffffffffffffffffff1673ffffffffffffffffffffffffffffffffffffffff16815260200190815260200160002060009054906101000a90046bffffffffffffffffffffffff1661035691906114e1565b905080600160003373ffffffffffffffffffffffffffffffffffffffff1673ffffffffffffffffffffffffffffffffffffffff16815260200190815260200160002060008673ffffffffffffffffffffffffffffffffffffffff1673ffffffffffffffffffffffffffffffffffffffff16815260200190815260200160002060006101000a8154816bffffffffffffffffffffffff02191690836bffffffffffffffffffffffff1602179055508373ffffffffffffffffffffffffffffffffffffffff163373ffffffffffffffffffffffffffffffffffffffff167f19ed2b70d0b204384ff1671abf69ee2e07332f5827fb8ef9eaccefd3c4fd84f68360405161046091906113a0565b60405180910390a3600191505092915050565b60006012600a610483919061165e565b620f424061049191906116a9565b905090565b60006012905090565b600080600160003373ffffffffffffffffffffffffffffffffffffffff1673ffffffffffffffffffffffffffffffffffffffff16815260200190815260200160002060008573ffffffffffffffffffffffffffffffffffffffff1673ffffffffffffffffffffffffffffffffffffffff16815260200190815260200160002060009054906101000a90046bffffffffffffffffffffffff169050826bffffffffffffffffffffffff16816bffffffffffffffffffffffff161015610598576040517f08c379a000000000000000000000000000000000000000000000000000000000815260040161058f9061175d565b60405180910390fd5b600083826105a6919061177d565b905080600160003373ffffffffffffffffffffffffffffffffffffffff1673ffffffffffffffffffffffffffffffffffffffff16815260200190815260200160002060008773ffffffffffffffffffffffffffffffffffffffff1673ffffffffffffffffffffffffffffffffffffffff16815260200190815260200160002060006101000a8154816bffffffffffffffffffffffff02191690836bffffffffffffffffffffffff1602179055508473ffffffffffffffffffffffffffffffffffffffff163373ffffffffffffffffffffffffffffffffffffffff167f19ed2b70d0b204384ff1671abf69ee2e07332f5827fb8ef9eaccefd3c4fd84f6836040516106b091906113a0565b60405180910390a360019250505092915050565b60008060008373ffffffffffffffffffffffffffffffffffffffff1673ffffffffffffffffffffffffffffffffffffffff16815260200190815260200160002060009054906101000a90046bffffffffffffffffffffffff169050919050565b60606040518060400160405280600481526020017f4143343200000000000000000000000000000000000000000000000000000000815250905090565b60008060008573ffffffffffffffffffffffffffffffffffffffff1673ffffffffffffffffffffffffffffffffffffffff16815260200190815260200160002060009054906101000a90046bffffffffffffffffffffffff166bffffffffffffffffffffffff16826bffffffffffffffffffffffff161115610818576040517f08c379a000000000000000000000000000000000000000000000000000000000815260040161080f9061182f565b60405180910390fd5b600160008573ffffffffffffffffffffffffffffffffffffffff1673ffffffffffffffffffffffffffffffffffffffff16815260200190815260200160002060003373ffffffffffffffffffffffffffffffffffffffff1673ffffffffffffffffffffffffffffffffffffffff16815260200190815260200160002060009054906101000a90046bffffffffffffffffffffffff166bffffffffffffffffffffffff16826bffffffffffffffffffffffff16111561090b576040517f08c379a00000000000000000000000000000000000000000000000000000000081526004016109029061189b565b60405180910390fd5b600073ffffffffffffffffffffffffffffffffffffffff168373ffffffffffffffffffffffffffffffffffffffff160361097a576040517f08c379a00000000000000000000000000000000000000000000000000000000081526004016109719061192d565b60405180910390fd5b816000808673ffffffffffffffffffffffffffffffffffffffff1673ffffffffffffffffffffffffffffffffffffffff16815260200190815260200160002060008282829054906101000a90046bffffffffffffffffffffffff166109df919061177d565b92506101000a8154816bffffffffffffffffffffffff02191690836bffffffffffffffffffffffff160217905550816000808573ffffffffffffffffffffffffffffffffffffffff1673ffffffffffffffffffffffffffffffffffffffff16815260200190815260200160002060008282829054906101000a90046bffffffffffffffffffffffff16610a7291906114e1565b92506101000a8154816bffffffffffffffffffffffff02191690836bffffffffffffffffffffffff16021790555081600160008673ffffffffffffffffffffffffffffffffffffffff1673ffffffffffffffffffffffffffffffffffffffff16815260200190815260200160002060003373ffffffffffffffffffffffffffffffffffffffff1673ffffffffffffffffffffffffffffffffffffffff16815260200190815260200160002060008282829054906101000a90046bffffffffffffffffffffffff16610b43919061177d565b92506101000a8154816bffffffffffffffffffffffff02191690836bffffffffffffffffffffffff1602179055508273ffffffffffffffffffffffffffffffffffffffff168473ffffffffffffffffffffffffffffffffffffffff167fba7196a4bdbfed2416fed23830b5c875c6e32d81744212e9776f7d2b02a3318884604051610bce91906113a0565b60405180910390a3600190509392505050565b60008073ffffffffffffffffffffffffffffffffffffffff168373ffffffffffffffffffffffffffffffffffffffff1603610c51576040517f08c379a0000000000000000000000000000000000000000000000000000000008152600401610c489061192d565b60405180910390fd5b816bffffffffffffffffffffffff166000803373ffffffffffffffffffffffffffffffffffffffff1673ffffffffffffffffffffffffffffffffffffffff16815260200190815260200160002060009054906101000a90046bffffffffffffffffffffffff166bffffffffffffffffffffffff161015610d06576040517f08c379a0000000000000000000000000000000000000000000000000000000008152600401610cfd9061182f565b60405180910390fd5b816000803373ffffffffffffffffffffffffffffffffffffffff1673ffffffffffffffffffffffffffffffffffffffff16815260200190815260200160002060008282829054906101000a90046bffffffffffffffffffffffff16610d6b919061177d565b92506101000a8154816bffffffffffffffffffffffff02191690836bffffffffffffffffffffffff160217905550816000808573ffffffffffffffffffffffffffffffffffffffff1673ffffffffffffffffffffffffffffffffffffffff16815260200190815260200160002060008282829054906101000a90046bffffffffffffffffffffffff16610dfe91906114e1565b92506101000a8154816bffffffffffffffffffffffff02191690836bffffffffffffffffffffffff1602179055508273ffffffffffffffffffffffffffffffffffffffff163373ffffffffffffffffffffffffffffffffffffffff167fba7196a4bdbfed2416fed23830b5c875c6e32d81744212e9776f7d2b02a3318884604051610e8991906113a0565b60405180910390a36001905092915050565b6000600160008473ffffffffffffffffffffffffffffffffffffffff1673ffffffffffffffffffffffffffffffffffffffff16815260200190815260200160002060008373ffffffffffffffffffffffffffffffffffffffff1673ffffffffffffffffffffffffffffffffffffffff16815260200190815260200160002060009054906101000a90046bffffffffffffffffffffffff16905092915050565b60008073ffffffffffffffffffffffffffffffffffffffff168373ffffffffffffffffffffffffffffffffffffffff1603610faa576040517f08c379a0000000000000000000000000000000000000000000000000000000008152600401610fa1906119bf565b60405180910390fd5b6000600160003373ffffffffffffffffffffffffffffffffffffffff1673ffffffffffffffffffffffffffffffffffffffff16815260200190815260200160002060008573ffffffffffffffffffffffffffffffffffffffff1673ffffffffffffffffffffffffffffffffffffffff16815260200190815260200160002060009054906101000a90046bffffffffffffffffffffffff166bffffffffffffffffffffffff16148061106957506000826bffffffffffffffffffffffff16145b6110a8576040517f08c379a000000000000000000000000000000000000000000000000000000000815260040161109f90611a51565b60405180910390fd5b81600160003373ffffffffffffffffffffffffffffffffffffffff1673ffffffffffffffffffffffffffffffffffffffff16815260200190815260200160002060008573ffffffffffffffffffffffffffffffffffffffff1673ffffffffffffffffffffffffffffffffffffffff16815260200190815260200160002060006101000a8154816bffffffffffffffffffffffff02191690836bffffffffffffffffffffffff1602179055508273ffffffffffffffffffffffffffffffffffffffff163373ffffffffffffffffffffffffffffffffffffffff167f19ed2b70d0b204384ff1671abf69ee2e07332f5827fb8ef9eaccefd3c4fd84f6846040516111b091906113a0565b60405180910390a36001905092915050565b600081519050919050565b600082825260208201905092915050565b60005b838110156111fc5780820151818401526020810190506111e1565b60008484015250505050565b6000601f19601f8301169050919050565b6000611224826111c2565b61122e81856111cd565b935061123e8185602086016111de565b61124781611208565b840191505092915050565b6000602082019050818103600083015261126c8184611219565b905092915050565b600080fd5b600073ffffffffffffffffffffffffffffffffffffffff82169050919050565b60006112a482611279565b9050919050565b6112b481611299565b81146112bf57600080fd5b50565b6000813590506112d1816112ab565b92915050565b60006bffffffffffffffffffffffff82169050919050565b6112f8816112d7565b811461130357600080fd5b50565b600081359050611315816112ef565b92915050565b6000806040838503121561133257611331611274565b5b6000611340858286016112c2565b925050602061135185828601611306565b9150509250929050565b60008115159050919050565b6113708161135b565b82525050565b600060208201905061138b6000830184611367565b92915050565b61139a816112d7565b82525050565b60006020820190506113b56000830184611391565b92915050565b600060ff82169050919050565b6113d1816113bb565b82525050565b60006020820190506113ec60008301846113c8565b92915050565b60006020828403121561140857611407611274565b5b6000611416848285016112c2565b91505092915050565b60008060006060848603121561143857611437611274565b5b6000611446868287016112c2565b9350506020611457868287016112c2565b925050604061146886828701611306565b9150509250925092565b6000806040838503121561148957611488611274565b5b6000611497858286016112c2565b92505060206114a8858286016112c2565b9150509250929050565b7f4e487b7100000000000000000000000000000000000000000000000000000000600052601160045260246000fd5b60006114ec826112d7565b91506114f7836112d7565b925082820190506bffffffffffffffffffffffff81111561151b5761151a6114b2565b5b92915050565b60008160011c9050919050565b6000808291508390505b600185111561157857808604811115611554576115536114b2565b5b60018516156115635780820291505b808102905061157185611521565b9450611538565b94509492505050565b600082611591576001905061164d565b8161159f576000905061164d565b81600181146115b557600281146115bf576115ee565b600191505061164d565b60ff8411156115d1576115d06114b2565b5b8360020a9150848211156115e8576115e76114b2565b5b5061164d565b5060208310610133831016604e8410600b84101617156116235782820a90508381111561161e5761161d6114b2565b5b61164d565b611630848484600161152e565b92509050818404811115611647576116466114b2565b5b81810290505b9392505050565b6000819050919050565b600061166982611654565b9150611674836113bb565b92506116a17fffffffffffffffffffffffffffffffffffffffffffffffffffffffffffffffff8484611581565b905092915050565b60006116b482611654565b91506116bf83611654565b92508282026116cd81611654565b915082820484148315176116e4576116e36114b2565b5b5092915050565b7f45524332303a2064656372656173656420616c6c6f77616e63652062656c6f7760008201527f207a65726f000000000000000000000000000000000000000000000000000000602082015250565b60006117476025836111cd565b9150611752826116eb565b604082019050919050565b600060208201905081810360008301526117768161173a565b9050919050565b6000611788826112d7565b9150611793836112d7565b925082820390506bffffffffffffffffffffffff8111156117b7576117b66114b2565b5b92915050565b7f45524332303a207472616e7366657220616d6f756e742065786365656473206260008201527f616c616e63650000000000000000000000000000000000000000000000000000602082015250565b60006118196026836111cd565b9150611824826117bd565b604082019050919050565b600060208201905081810360008301526118488161180c565b9050919050565b7f45524332303a20696e73756666696369656e7420616c6c6f77616e6365000000600082015250565b6000611885601d836111cd565b91506118908261184f565b602082019050919050565b600060208201905081810360008301526118b481611878565b9050919050565b7f45524332303a207472616e7366657220746f20746865207a65726f206164647260008201527f6573730000000000000000000000000000000000000000000000000000000000602082015250565b60006119176023836111cd565b9150611922826118bb565b604082019050919050565b600060208201905081810360008301526119468161190a565b9050919050565b7f45524332303a20617070726f766520746f20746865207a65726f20616464726560008201527f7373000000000000000000000000000000000000000000000000000000000000602082015250565b60006119a96022836111cd565b91506119b48261194d565b604082019050919050565b600060208201905081810360008301526119d88161199c565b9050919050565b7f45524332303a206d7573742066697273742073657420616c6c6f77616e63652060008201527f746f207a65726f00000000000000000000000000000000000000000000000000602082015250565b6000611a3b6027836111cd565b9150611a46826119df565b604082019050919050565b60006020820190508181036000830152611a6a81611a2e565b905091905056fea2646970667358221220f6e4eb4a64b5efb97d06bc6b337b98ac84cb4879ba50ac4a62f946afd2aed73c64736f6c634300081c0033",
  "linkReferences": {},
  "deployedLinkReferences": {}
}