{
  "_format": "hh3-artifact-1",
  "contractName": "Niel42",
  "sourceName": "contracts/Niel42.sol",
  "abi": [
    {
      "inputs": [],
      "stateMutability": "nonpayable",
      "type": "constructor"
    },
    {
      "anonymous": false,
      "inputs": [
        {
          "indexed": true,
          "internalType": "address",
          "name": "_owner",
          "type": "address"
        },
        {
          "indexed": true,
          "internalType": "address",
          "name": "_spender",
          "type": "address"
        },
        {
          "indexed": false,
          "internalType": "uint96",
          "name": "_value",
          "type": "uint96"
        }
      ],
      "name": "Approval",
      "type": "event"
    },
    {
      "anonymous": false,
      "inputs": [
        {
          "indexed": true,
          "internalType": "address",
          "name": "_from",
          "type": "address"
        },
        {
          "indexed": true,
          "internalType": "address",
          "name": "_to",
          "type": "address"
        },
        {
          "indexed": false,
          "internalType": "uint96",
          "name": "_value",
          "type": "uint96"
        }
      ],
      "name": "Transfer",
      "type": "event"
    },
    {
      "inputs": [
        {
          "internalType": "address",
          "name": "owner_",
          "type": "address"
        },
        {
          "internalType": "address",
          "name": "spender_",
          "type": "address"
        }
      ],
      "name": "allowance",
      "outputs": [
        {
          "internalType": "uint96",
          "name": "",
          "type": "uint96"
        }
      ],
      "stateMutability": "view",
      "type": "function"
    },
    {
      "inputs": [
        {
          "internalType": "address",
          "name": "spender_",
          "type": "address"
        },
        {
          "internalType": "uint96",
          "name": "value_",
          "type": "uint96"
        }
      ],
      "name": "approve",
      "outputs": [
        {
          "internalType": "bool",
          "name": "success",
          "type": "bool"
        }
      ],
      "stateMutability": "nonpayable",
      "type": "function"
    },
    {
      "inputs": [
        {
          "internalType": "address",
          "name": "owner_",
          "type": "address"
        }
      ],
      "name": "balanceOf",
      "outputs": [
        {
          "internalType": "uint96",
          "name": "",
          "type": "uint96"
        }
      ],
      "stateMutability": "view",
      "type": "function"
    },
    {
      "inputs": [],
      "name": "decimals",
      "outputs": [
        {
          "internalType": "uint8",
          "name": "",
          "type": "uint8"
        }
      ],
      "stateMutability": "pure",
      "type": "function"
    },
    {
      "inputs": [
        {
          "internalType": "address",
          "name": "spender_",
          "type": "address"
        },
        {
          "internalType": "uint96",
          "name": "subtractedValue",
          "type": "uint96"
        }
      ],
      "name": "decreaseAllowance",
      "outputs": [
        {
          "internalType": "bool",
          "name": "",
          "type": "bool"
        }
      ],
      "stateMutability": "nonpayable",
      "type": "function"
    },
    {
      "inputs": [
        {
          "internalType": "address",
          "name": "spender_",
          "type": "address"
        },
        {
          "internalType": "uint96",
          "name": "addedValue",
          "type": "uint96"
        }
      ],
      "name": "increaseAllowance",
      "outputs": [
        {
          "internalType": "bool",
          "name": "",
          "type": "bool"
        }
      ],
      "stateMutability": "nonpayable",
      "type": "function"
    },
    {
      "inputs": [],
      "name": "name",
      "outputs": [
        {
          "internalType": "string",
          "name": "",
          "type": "string"
        }
      ],
      "stateMutability": "pure",
      "type": "function"
    },
    {
      "inputs": [],
      "name": "symbol",
      "outputs": [
        {
          "internalType": "string",
          "name": "",
          "type": "string"
        }
      ],
      "stateMutability": "pure",
      "type": "function"
    },
    {
      "inputs": [],
      "name": "totalSupply",
      "outputs": [
        {
          "internalType": "uint96",
          "name": "",
          "type": "uint96"
        }
      ],
      "stateMutability": "pure",
      "type": "function"
    },
    {
      "inputs": [
        {
          "internalType": "address",
          "name": "to_",
          "type": "address"
        },
        {
          "internalType": "uint96",
          "name": "value_",
          "type": "uint96"
        }
      ],
      "name": "transfer",
      "outputs": [
        {
          "internalType": "bool",
          "name": "success",
          "type": "bool"
        }
      ],
      "stateMutability": "nonpayable",
      "type": "function"
    },
    {
      "inputs": [
        {
          "internalType": "address",
          "name": "from_",
          "type": "address"
        },
        {
          "internalType": "address",
          "name": "to_",
          "type": "address"
        },
        {
          "internalType": "uint96",
          "name": "value_",
          "type": "uint96"
        }
      ],
      "name": "transferFrom",
      "outputs": [
        {
          "internalType": "bool",
          "name": "success",
          "type": "bool"
        }
      ],
      "stateMutability": "nonpayable",
      "type": "function"
    }
  ],
  "bytecode": "0x608060405234801561000f575f5ffd5b50335f81815260208190526040812080546001600160601b0380821669d3c21bcecceda100000001166001600160601b03199091161790557fba7196a4bdbfed2416fed23830b5c875c6e32d81744212e9776f7d2b02a331886100746012600a61019a565b61008190620f42406101af565b6040516001600160601b03909116815260200160405180910390a36101c6565b634e487b7160e01b5f52601160045260245ffd5b6001815b60018411156100f0578085048111156100d4576100d46100a1565b60018416156100e257908102905b60019390931c9280026100b9565b935093915050565b5f8261010657506001610194565b8161011257505f610194565b816001811461012857600281146101325761014e565b6001915050610194565b60ff841115610143576101436100a1565b50506001821b610194565b5060208310610133831016604e8410600b8410161715610171575081810a610194565b61017d5f1984846100b5565b805f1904821115610190576101906100a1565b0290505b92915050565b5f6101a860ff8416836100f8565b9392505050565b8082028115828204841417610194576101946100a1565b610c45806101d35f395ff3fe608060405234801561000f575f5ffd5b50600436106100a6575f3560e01c806370a082311161006e57806370a082311461014357806395d89b41146101745780639a23b2b414610193578063a0017938146101a6578063dd62ed3e146101b9578063ea0b3c73146101fa575f5ffd5b806306fdde03146100aa5780631385c172146100de57806318160ddd14610101578063313ce567146101215780635c9087be14610130575b5f5ffd5b6040805180820190915260068152652734b2b61a1960d11b60208201525b6040516100d5919061090d565b60405180910390f35b6100f16100ec366004610973565b61020d565b60405190151581526020016100d5565b6101096102c8565b6040516001600160601b0390911681526020016100d5565b604051601281526020016100d5565b6100f161013e366004610973565b6102e7565b6101096101513660046109a4565b6001600160a01b03165f908152602081905260409020546001600160601b031690565b604080518082019091526003815262271a1960e91b60208201526100c8565b6100f16101a13660046109c4565b610406565b6100f16101b4366004610973565b610646565b6101096101c7366004610a04565b6001600160a01b039182165f9081526001602090815260408083209390941682529190915220546001600160601b031690565b6100f1610208366004610973565b61079f565b335f9081526001602090815260408083206001600160a01b038616845290915281205481906102469084906001600160601b0316610a40565b335f8181526001602090815260408083206001600160a01b038a168085529083529281902080546001600160601b0319166001600160601b038716908117909155905190815293945090927f19ed2b70d0b204384ff1671abf69ee2e07332f5827fb8ef9eaccefd3c4fd84f6910160405180910390a360019150505b92915050565b5f6102d56012600a610b42565b6102e290620f4240610b50565b905090565b335f9081526001602090815260408083206001600160a01b03861684529091528120546001600160601b0390811690831681101561037a5760405162461bcd60e51b815260206004820152602560248201527f45524332303a2064656372656173656420616c6c6f77616e63652062656c6f77604482015264207a65726f60d81b60648201526084015b60405180910390fd5b5f6103858483610b67565b335f8181526001602090815260408083206001600160a01b038b168085529083529281902080546001600160601b0319166001600160601b038716908117909155905190815293945090927f19ed2b70d0b204384ff1671abf69ee2e07332f5827fb8ef9eaccefd3c4fd84f6910160405180910390a3506001949350505050565b6001600160a01b0383165f908152602081905260408120546001600160601b03908116908316111561044a5760405162461bcd60e51b815260040161037190610b86565b6001600160a01b0384165f9081526001602090815260408083203384529091529020546001600160601b0390811690831611156104c95760405162461bcd60e51b815260206004820152601d60248201527f45524332303a20696e73756666696369656e7420616c6c6f77616e63650000006044820152606401610371565b6001600160a01b0383166104ef5760405162461bcd60e51b815260040161037190610bcc565b6001600160a01b0384165f908152602081905260408120805484929061051f9084906001600160601b0316610b67565b82546101009290920a6001600160601b038181021990931691831602179091556001600160a01b0385165f9081526020819052604081208054869450909261056991859116610a40565b82546101009290920a6001600160601b038181021990931691831602179091556001600160a01b0386165f9081526001602090815260408083203384529091528120805486945090926105be91859116610b67565b92506101000a8154816001600160601b0302191690836001600160601b03160217905550826001600160a01b0316846001600160a01b03167fba7196a4bdbfed2416fed23830b5c875c6e32d81744212e9776f7d2b02a331888460405161063491906001600160601b0391909116815260200190565b60405180910390a35060019392505050565b5f6001600160a01b03831661066d5760405162461bcd60e51b815260040161037190610bcc565b335f908152602081905260409020546001600160601b03808416911610156106a75760405162461bcd60e51b815260040161037190610b86565b335f90815260208190526040812080548492906106ce9084906001600160601b0316610b67565b82546101009290920a6001600160601b038181021990931691831602179091556001600160a01b0385165f9081526020819052604081208054869450909261071891859116610a40565b92506101000a8154816001600160601b0302191690836001600160601b03160217905550826001600160a01b0316336001600160a01b03167fba7196a4bdbfed2416fed23830b5c875c6e32d81744212e9776f7d2b02a331888460405161078e91906001600160601b0391909116815260200190565b60405180910390a350600192915050565b5f6001600160a01b0383166108015760405162461bcd60e51b815260206004820152602260248201527f45524332303a20617070726f766520746f20746865207a65726f206164647265604482015261737360f01b6064820152608401610371565b335f9081526001602090815260408083206001600160a01b03871684529091529020546001600160601b0316158061084057506001600160601b038216155b61089c5760405162461bcd60e51b815260206004820152602760248201527f45524332303a206d7573742066697273742073657420616c6c6f77616e636520604482015266746f207a65726f60c81b6064820152608401610371565b335f8181526001602090815260408083206001600160a01b0388168085529083529281902080546001600160601b0319166001600160601b03881690811790915590519081529192917f19ed2b70d0b204384ff1671abf69ee2e07332f5827fb8ef9eaccefd3c4fd84f6910161078e565b602081525f82518060208401528060208501604085015e5f604082850101526040601f19601f83011684010191505092915050565b80356001600160a01b0381168114610958575f5ffd5b919050565b80356001600160601b0381168114610958575f5ffd5b5f5f60408385031215610984575f5ffd5b61098d83610942565b915061099b6020840161095d565b90509250929050565b5f602082840312156109b4575f5ffd5b6109bd82610942565b9392505050565b5f5f5f606084860312156109d6575f5ffd5b6109df84610942565b92506109ed60208501610942565b91506109fb6040850161095d565b90509250925092565b5f5f60408385031215610a15575f5ffd5b610a1e83610942565b915061099b60208401610942565b634e487b7160e01b5f52601160045260245ffd5b6001600160601b0381811683821601908111156102c2576102c2610a2c565b6001815b6001841115610a9a57808504811115610a7e57610a7e610a2c565b6001841615610a8c57908102905b60019390931c928002610a63565b935093915050565b5f82610ab0575060016102c2565b81610abc57505f6102c2565b8160018114610ad25760028114610adc57610af8565b60019150506102c2565b60ff841115610aed57610aed610a2c565b50506001821b6102c2565b5060208310610133831016604e8410600b8410161715610b1b575081810a6102c2565b610b275f198484610a5f565b805f1904821115610b3a57610b3a610a2c565b029392505050565b5f6109bd60ff841683610aa2565b80820281158282048414176102c2576102c2610a2c565b6001600160601b0382811682821603908111156102c2576102c2610a2c565b60208082526026908201527f45524332303a207472616e7366657220616d6f756e7420657863656564732062604082015265616c616e636560d01b606082015260800190565b60208082526023908201527f45524332303a207472616e7366657220746f20746865207a65726f206164647260408201526265737360e81b60608201526080019056fea2646970667358221220e9ca159e22ad61be921360ca003e339db504c0dcd45fe5d530b319c0b1147e1464736f6c634300081c0033",
  "linkReferences": {},
  "deployedLinkReferences": {},
  "immutableReferences": {},
  "inputSourceName": "contracts/Niel42.sol",
  "buildInfoId": "c9ed13367c53d454f470b582ffc6763ee93e318b"
}